:020000021000EC
:10E0000065C0000080C000007EC000007CC0000031
:10E010007AC0000078C0000076C0000074C0000024
:10E0200072C0000070C000006EC000006CC0000034
:10E030006AC0000068C0000066C0000064C0000044
:10E0400062C0000060C000005EC000005CC0000054
:10E050005AC0000058C0000056C0000054C0000064
:10E0600052C0000017C200003EC200004CC00000B9
:10E070004AC0000048C0000046C0000044C0000084
:10E0800042C0000040C000003EC000003CC0000094
:10E0900059C2000080C2000036C0000034C0000039
:10E0A00032C0000030C000002EC000002CC00000B4
:10E0B0002AC0000028C0000026C0000024C00000C4
:10E0C00022C0000020C000001EC0000011241FBE9E
:10E0D000CFEFD1E2DEBFCDBF12E0A0E0B2E0E0EBD7
:10E0E000F6EE01E00BBF02C007900D92A030B10721
:10E0F000D9F726E0A0E0B2E001C01D92A830B20737
:10E10000E1F7B6D0D3C27CCF8F929F92AF92BF92ED
:10E11000CF92DF92EF92FF924B015C01DA01F8940B
:10E1200083E0F401A0925B0080935700E89507B666
:10E1300000FCFDCF20E030E017C0FD01E20FF31F2F
:10E140004081818190E0982F8827842B6901E12C00
:10E15000F12C51E00C01F601E0925B005093570066
:10E16000E89511242E5F3F4F2F3F310531F328F3FF
:10E1700085E0F401A0925B0080935700E89507B614
:10E1800000FCFDCF81E180935700E8957894FF90E3
:10E19000EF90DF90CF90BF90AF909F908F900895B9
:10E1A000F89481E085BF15BE1092C1000C94000068
:10E1B0000895CF92DF92EF92FF92CF93DF93CDB786
:10E1C000DEB7C650D1400FB6F894DEBF0FBECDBF4C
:10E1D000C12CD12C7601CE010196BED028EE33E0C1
:10E1E00006C0E0E9F1E03197F1F72150310921153E
:10E1F0003105B9F78130D9F4C11480EED80681E039
:10E20000E806F10418F085E10DD224C0AE014B5FA1
:10E210005F4FC701B60178DF86E004D28FEFD81ACE
:10E22000E80AF80A98B181E0892788B9D4CF82300A
:10E2300071F486E0F7D188EE93E005C0E0E9F1E003
:10E240003197F1F701970097C9F7AADFC4CF85E1AD
:10E25000E9D1C1CFCA5FDE4F0FB6F894DEBF0FBE63
:10E26000CDBFDF91CF91FF90EF90DF90CF900895D9
:10E27000CF93DF938FEF87B918B8BCD1C7D181E0B6
:10E2800085BF82E085BF789480E197E20DC085E08C
:10E2900088B980E49CE90197F1F7EBD1892B19F05B
:10E2A000D6D1833551F1CE01EC012197892B79F735
:10E2B000E0E0F0E0859194910196D1F41DC08FE0EB
:10E2C00088B980ED97E005C0E0E9F1E03197F1F71A
:10E2D00001970097C9F718B880ED97E005C0E0E90D
:10E2E000F1E03197F1F701970097C9F72F5F01C06F
:10E2F00020E0253020F354DFFFCFC5D182E592D155
:10E30000CAD157DF80E090E0DF91CF910895DC0122
:10E3100040E050E08FEF9FEF1BC0FD01E40FF51FC1
:10E32000208130E0322F22278227932720E00CC063
:10E3300099233CF4880F991F31E2832730E193271A
:10E3400002C0880F991F2F5F283090F34F5F5F4FF7
:10E350004617570710F30895EF92FF920F931F93FC
:10E36000CF93DF93CDB7DEB7C950D2400FB6F89444
:10E37000DEBF0FBECDBF7C017CD1892BE9F367D115
:10E3800089838F3EE1F701E010E00AC060D1E1E04F
:10E39000F0E0EC0FFD1FE00FF11F80830F5F1F4FB8
:10E3A000063041E0140790F38981F70180835A8198
:10E3B00051834B813C81832F90E0982F8827842BB9
:10E3C0009383828380E090E00EC0FC01349661E08C
:10E3D00070E06C0F7D1FE60FF71F2081F701E80F3B
:10E3E000F91F248301968F3F910579F370F3CB5F7A
:10E3F000DE4F8881C550D140CA5FDE4F0881C650CC
:10E40000D14010E0102F0027082BF701EC5FFE4FE2
:10E4100011830083C95FDE4F5883C750D140C85F66
:10E42000DE4F4883C850D140C75FDE4F3883C950A4
:10E43000D14080E090E00FC0FC013396D701A80FD7
:10E44000B91F14962C9147E051E04C0F5D1FE40F6B
:10E45000F51F208301968F3F910571F368F363E008
:10E4600071E0CE01895F9E4F52DF0817190719F43A
:10E47000F701818101C085E1C75FDD4F0FB6F894D8
:10E48000DEBF0FBECDBFDF91CF911F910F91FF90E7
:10E49000EF9008951F920F920FB60F9211240BB6B2
:10E4A0000F922F938F939F93EF93FF932091C6002A
:10E4B000809107048F5F90910604891741F0E091E5
:10E4C0000704F0E0E85FFA4F208380930704FF9190
:10E4D000EF919F918F912F910F900BBE0F900FBED8
:10E4E0000F901F9018951F920F920FB60F92112444
:10E4F0000BB60F928F939F93EF93FF939091050428
:10E5000080910404981306C0E1ECF0E080818F7DD7
:10E5100080830DC0E0910404F0E0E85FFB4F808150
:10E520008093C600809104048F5F80930404FF9160
:10E53000EF919F918F910F900BBE0F900FBE0F9098
:10E540001F9018951F920F920FB60F9211240BB6C1
:10E550000F922F938F939F93EF93FF932091CE0071
:10E56000809103028F5F90910202891741F0E09140
:10E570000302F0E0EC5FFC4F208380930302FF91E5
:10E58000EF919F918F912F910F900BBE0F900FBE27
:10E590000F901F9018951F920F920FB60F92112493
:10E5A0000BB60F928F939F93EF93FF93909101027D
:10E5B00080910002981306C0E9ECF0E080818F7D25
:10E5C00080830DC0E0910002F0E0EC5FFD4F8081A0
:10E5D0008093CE00809100028F5F80930002FF91B4
:10E5E000EF919F918F910F900BBE0F900FBE0F90E8
:10E5F0001F9018951092C50083E38093C40088E9AA
:10E600008093C10086E08093C20008951092CD00EF
:10E6100083E38093CC0088E98093C90086E08093EF
:10E62000CA000895209101022F5F909100022917DE
:10E63000E1F3E0910102F0E0EC5FFD4F8083209375
:10E640000102E9ECF0E0808180628083089590917E
:10E650000302809102029817D1F3E0910202F0E0E8
:10E66000EC5FFC4F8081909102029F5F90930202C9
:10E670000895209103029091020281E0291301C0C4
:10E6800080E090E008958FB7F89490910302909302
:10E6900002028FBF089590910102809100029813A9
:10E6A000FACF8091C80086FFFCCF0895F894FFCF81
:040000031000E00009
:00000001FF
