S01A0000332920556172745F526561645F57726974652E73726563AD
S21401FC0065C0000080C000007EC000007CC000000F
S21401FC107AC0000078C0000076C0000074C0000002
S21401FC2072C0000070C000006EC000006CC0000012
S21401FC306AC0000068C0000066C0000064C0000022
S21401FC4062C0000060C000005EC000005CC0000032
S21401FC505AC0000058C0000056C0000054C0000042
S21401FC6052C0000050C000004EC000004CC0000052
S21401FC704AC0000048C0000046C0000044C0000062
S21401FC8042C0000040C000003EC000003CC0000072
S21401FC903AC0000038C0000036C0000034C0000082
S21401FCA032C0000030C000002EC000002CC0000092
S21401FCB02AC0000028C0000026C0000024C00000A2
S21401FCC022C0000020C000001EC0000011241FBE7C
S21401FCD0CFEFD1E2DEBFCDBF12E0A0E0B2E0E6E3B7
S21401FCE0FFEF01E00BBF02C007900D92A030B107F5
S21401FCF0D9F722E0A0E0B2E001C01D92A030B20721
S21401FD00E1F796D016C17CCF23E0FB0180935B0020
S21401FD1020935700E89507B600FCFDCF81E180935C
S21401FD205700E89508958F929F92AF92BF92CF9217
S21401FD30DF92EF92FF924B015C01DA0120E030E0A6
S21401FD401AC0FD01E20FF31F4081818190E0982FD8
S21401FD508827842B75016401C20ED31EE11CF11C99
S21401FD6051E00C01F601E0925B0050935700E895D4
S21401FD7011242E5F3F4F2F3F310519F310F3FF90EB
S21401FD80EF90DF90CF90BF90AF909F908F900895A7
S21401FD9025E0FB0180935B0020935700E89507B6AA
S21401FDA000FCFDCF81E180935700E8950895CF923E
S21401FDB0DF92EF92FF92CF93DF936B017C01EA0112
S21401FDC0F894A2DF07B600FCFDCFAE01C701B6016D
S21401FDD0AADFC701B601DCDF7894DF91CF91FF90EF
S21401FDE0EF90DF90CF900895EF92FF920F931F93BD
S21401FDF0CF93DF937C0196D0F70180838F3F81F00C
S21401FE00C1E0D0E007C087010C0F1D1F8BD0F801A1
S21401FE1080832196CF3FD105B1F3A8F381E001C0DD
S21401FE2080E0DF91CF911F910F91FF90EF900895A1
S21401FE30CF92DF92EF92FF92CF93DF93CDB7DEB7EB
S21401FE40DA950FB6F894DEBF0FBECDBF8FEF87B938
S21401FE5056D080E016C09FE098B92FEF39E698E1BA
S21401FE60215030409040E1F700C0000018B82FEF55
S21401FE7039E698E1215030409040E1F700C000009B
S21401FE808F5F833040F382E546D085E444D081E439
S21401FE9042D084E440D089E53ED08DE03CD08AE073
S21401FEA03AD0C12CD12C7601CE0101969DDF882354
S21401FEB069F0AE014F5F5F4FC701B60178DF86E09C
S21401FEC02AD02FEFD21AE20AF20AEECF86E023D02A
S21401FED01092C100F89481E085BF15BE0C94000015
S21401FEE080E090E0D3950FB6F894DEBF0FBECDBF8D
S21401FEF0DF91CF91FF90EF90DF90CF900895109211
S21401FF00C50087E68093C40088E18093C10086E03F
S21401FF108093C20008959091C00095FFFCCF809316
S21401FF20C60008958091C0008823E4F78091C6003A
S20A01FF300895F894FFCFCE
S80401FC00FE
