S01200004E552D484320746573742E73726563D7
S113000065C0000080C000007EC000007CC000000D
S11300107AC0000078C0000076C0000074C0000000
S113002072C0000070C000006EC000006CC0000010
S11300306AC0000068C0000066C0000064C0000020
S113004062C0000060C000005EC000005CC0000030
S11300505AC0000058C0000056C0000054C0000040
S113006052C0000070C0000097C000004CC00000E7
S11300704AC0000048C0000046C0000044C0000060
S113008042C0000040C000003EC000003CC0000070
S1130090B2C00000D9C0000036C0000034C0000067
S11300A032C0000030C000002EC000002CC0000090
S11300B02AC0000028C0000026C0000024C00000A0
S11300C022C0000020C000001EC0000011241FBE7A
S11300D0CFEFD1E2DEBFCDBF12E0A0E0B2E0EEE9A7
S11300E0F3E000E00BBF02C007900D92A030B1070F
S11300F0D9F726E0A0E0B2E001C01D92A830B20713
S1130100E1F702D04AC17CCF8FEF87B918B8CBD0C2
S1130110D6D0789482E4DFD08DE0DDD08AE0DBD0E5
S113012028D1892B31F001D1EBD098B181E0892716
S113013088B929D1892BA1F30AD1CDD098B182E015
S1130140892788B9EDCF1F920F920FB60F92112411
S11301500BB60F922F938F939F93EF93FF9320915E
S1130160C600809107048F5F90910604891741F0BF
S1130170E0910704F0E0E85FFA4F208380930704DE
S1130180FF91EF919F918F912F910F900BBE0F9044
S11301900FBE0F901F9018951F920F920FB60F92DB
S11301A011240BB60F928F939F93EF93FF9390912B
S11301B0050480910404981306C0E1ECF0E080810A
S11301C08F7D80830DC0E0910404F0E0E85FFB4F75
S11301D080818093C600809104048F5F809304041F
S11301E0FF91EF919F918F910F900BBE0F900FBED7
S11301F00F901F9018951F920F920FB60F92112413
S11302000BB60F922F938F939F93EF93FF932091AD
S1130210CE00809103028F5F90910202891741F012
S1130220E0910302F0E0EC5FFC4F20838093030233
S1130230FF91EF919F918F912F910F900BBE0F9093
S11302400FBE0F901F9018951F920F920FB60F922A
S113025011240BB60F928F939F93EF93FF9390917A
S1130260010280910002981306C0E9ECF0E080815D
S11302708F7D80830DC0E0910002F0E0EC5FFD4FC4
S113028080818093CE00809100028F5F8093000272
S1130290FF91EF919F918F910F900BBE0F900FBE26
S11302A00F901F9018951092C50083E38093C400AB
S11302B088E98093C10086E08093C200089510927B
S11302C0CD0083E38093CC0088E98093C90086E065
S11302D08093CA000895209105042F5F909104042F
S11302E02917E1F3E0910504F0E0E85FFB4F808318
S11302F020930504E1ECF0E080818062808308951E
S1130300209101022F5F909100022917E1F3E091FF
S11303100102F0E0EC5FFD4F808320930102E9ECE1
S1130320F0E0808180628083089590910704809139
S113033006049817D1F3E0910604F0E0E85FFA4F61
S11303408081909106049F5F909306040895909194
S11303500302809102029817D1F3E0910202F0E0C7
S1130360EC5FFC4F8081909102029F5F90930202A8
S11303700895209107049091060481E0291301C097
S113038080E090E00895209103029091020281E0C0
S1110390291301C080E090E00895F894FFCF97
S9030000FC
