:1000000065C000006BC0000069C0000067C0000050
:1000100065C0000063C0000061C000005FC0000058
:100020005DC000005BC0000059C0000057C0000068
:1000300055C0000053C0000051C000004FC0000078
:100040004DC000004BC0000049C0000047C0000088
:1000500045C0000043C0000041C000003FC0000098
:100060003DC000003BC0000039C0000037C00000A8
:1000700035C0000033C0000031C000002FC00000B8
:100080002DC000002BC0000029C0000027C00000C8
:1000900025C0000023C0000021C000001FC00000D8
:1000A0001DC000001BC0000019C0000017C00000E8
:1000B00015C0000013C0000011C000000FC00000F8
:1000C0000DC000000BC0000009C0000011241FBEBD
:1000D000CFEFD1E2DEBFCDBF02D09DC191CFCF9394
:1000E000DF93CDB7DEB72F970FB6F894DEBF0FBE04
:1000F000CDBF87E290E027E230E0F90120812F6058
:10010000FC01208381E0898388E290E02981FC0161
:10011000208380E090E0AAEFB3E48A839B83AC83E2
:10012000BD8320E030E04AE755E46A817B818C8121
:100130009D81E6D0DC01CB018E839F83A887B987A0
:1001400020E030E040E85FE36E817F81888599851B
:1001500056D088232CF481E090E09B878A873BC0AF
:1001600020E03FEF4FE757E46E817F8188859985D6
:10017000C3D018163CF520E030E040E251E46A813B
:100180007B818C819D81BCD0DC01CB01BC01CD0188
:100190003AD0DC01CB019B878A870FC080E991E0D0
:1001A0009D878C878C859D850197F1F79D878C872E
:1001B0008A859B8501979B878A878A859B85892B62
:1001C00069F713C06E817F81888599851CD0DC0119
:1001D000CB019B878A878A859B859F878E878E85A3
:1001E0009F850197F1F79F878E878981880F898383
:1001F0008981893008F488CF81E0898385CF2FD029
:1002000008F481E0089557D088F09F5790F0B92FF7
:100210009927B751A0F0D1F0660F771F881F991F5B
:100220001AF0BA95C9F712C0B13081F05ED0B1E0D2
:1002300008955BC0672F782F8827B85F39F0B93FE2
:10024000CCF3869577956795B395D9F73EF490955D
:100250008095709561957F4F8F4F9F4F0895990FAF
:100260000008550FAA0BE0E8FEEF16161706E80780
:10027000F907C0F012161306E407F50798F0621BA1
:10028000730B840B950B39F40A2661F0232B242B76
:10029000252B21F408950A2609F4A140A6958FEF95
:1002A000811D811D089557FD9058440F551F59F029
:1002B0005F3F71F04795880F97FB991F61F09F3F53
:1002C00079F087950895121613061406551FF2CF7C
:1002D0004695F1DF08C0161617061806991FF1CFCC
:1002E00086957105610508940895E894BB276627F3
:1002F0007727CB0197F90895B2DF08F48FEF0895BF
:100300000BD078C069D028F06ED018F0952309F092
:100310005AC05FC01124EACFC6DFA0F3959FD1F386
:10032000950F50E0551F629FF001729FBB27F00DA3
:10033000B11D639FAA27F00DB11DAA1F649F6627F8
:10034000B00DA11D661F829F2227B00DA11D621F47
:10035000739FB00DA11D621F839FA00D611D221F01
:10036000749F3327A00D611D231F849F600D211DE5
:10037000822F762F6A2F11249F5750408AF0E1F088
:1003800088234AF0EE0FFF1FBB1F661F771F881FD1
:1003900091505040A9F79E3F510570F014C0A6CF70
:1003A0005F3FECF3983EDCF3869577956795B795BC
:1003B000F795E7959F5FC1F7FE2B880F911D9695E6
:1003C000879597F9089597F99F6780E870E060E056
:1003D00008959FEF80EC089500240A9416161706DE
:1003E00018060906089500240A9412161306140626
:1003F00005060895092E0394000C11F4882352F089
:10040000BB0F40F4BF2B11F460FF04C06F5F7F4F40
:0A0410008F4F9F4F0895F894FFCF1F
:00000001FF
