S020000035292073656E645F62696E5F6C696E75785F746F5F4D43552E737265632F
S21401E00065C0000080C000007EC000007CC000002B
S21401E0107AC0000078C0000076C0000074C000001E
S21401E02072C0000070C000006EC000006CC000002E
S21401E0306AC0000068C0000066C0000064C000003E
S21401E04062C0000060C000005EC000005CC000004E
S21401E0505AC0000058C0000056C0000054C000005E
S21401E06052C0000050C000004EC000004CC000006E
S21401E0704AC0000048C0000046C0000044C000007E
S21401E08042C0000040C000003EC000003CC000008E
S21401E0903AC0000038C0000036C0000034C000009E
S21401E0A032C0000030C000002EC000002CC00000AE
S21401E0B02AC0000028C0000026C0000024C00000BE
S21401E0C022C0000020C000001EC0000011241FBE98
S21401E0D0CFEFD1E2DEBFCDBF12E0A0E0B2E0E0EAD2
S21401E0E0F4EE01E00BBF02C007900D92A030B1071D
S21401E0F0D9F722E0A0E0B2E001C01D92A030B2073D
S21401E100E1F7AAD0CBC17CCF8F929F92AF92BF92FC
S21401E110CF92DF92EF92FF924B015C01DA01F89405
S21401E12083E0F401A0925B0080935700E89507B660
S21401E13000FCFDCF20E030E017C0FD01E20FF31F29
S21401E1404081818190E0982F8827842B6901E12CFA
S21401E150F12C51E00C01F601E0925B005093570060
S21401E160E89511242E5F3F4F2F3F310531F328F3F9
S21401E17085E0F401A0925B0080935700E89507B60E
S21401E18000FCFDCF81E180935700E8957894FF90DD
S21401E190EF90DF90CF90BF90AF909F908F900895B3
S21401E1A0F89481E085BF15BE1092C1000C94000062
S21401E1B00895CF92DF92EF92FF92CF93DF93CDB780
S21401E1C0DEB7C650D1400FB6F894DEBF0FBECDBF46
S21401E1D0C12CD12C7601CE010196A5D08130D9F47F
S21401E1E0C11480EED80681E0E806F10418F085E156
S21401E1F042D124C0AE014B5F5F4FC701B60184DF39
S21401E20086E039D18FEFD81AE80AF80A98B181E08A
S21401E210892788B9E0CF823071F486E02CD188EE68
S21401E22093E005C0E0E9F1E03197F1F70197009737
S21401E230C9F7B6DFD0CF85E11ED1CDCFCA5FDE4F9D
S21401E2400FB6F894DEBF0FBECDBFDF91CF91FF9022
S21401E250EF90DF90CF900895CF93DF938FEF87B93C
S21401E26018B8FDD028EB3BE00AC085E088B980EA03
S21401E2709FE00197F1F70DD19E01892B49F5E90140
S21401E2802197232B91F7E0E0F0E085919491019698
S21401E290D1F41DC08FE088B980ED97E005C0E0E9B4
S21401E2A0F1E03197F1F701970097C9F718B880EDBB
S21401E2B097E005C0E0E9F1E03197F1F701970097A3
S21401E2C0C9F72F5F01C020E0253020F369DFFFCFBB
S21401E2D070DF80E090E0DF91CF910895DC0140E0AF
S21401E2E050E08FEF9FEF1BC0FD01E40FF51F20816B
S21401E2F030E0322F22278227932720E00CC0992373
S21401E3003CF4880F991F31E2832730E1932702C03E
S21401E310880F991F2F5F283090F34F5F5F4F461786
S21401E320570710F30895EF92FF920F931F93CF9321
S21401E330DF93CDB7DEB7C950D2400FB6F894DEBF33
S21401E3400FBECDBF7C0100E010E00AC09BD0E1E02B
S21401E350F0E0EC0FFD1FE00FF11F80830F5F1F4FF2
S21401E360063041E0140790F389818F3E09F066C0BC
S21401E370F70180835A8151834B813C81832F90E042
S21401E380982F8827842B9383828380E090E00EC0A9
S21401E390FC01349661E070E06C0F7D1FE60FF71FFD
S21401E3A02081F701E80FF91F248301968F3F91051D
S21401E3B079F370F3CB5FDE4F8881C550D140CA5FD9
S21401E3C0DE4F0881C650D14010E0102F0027082BE1
S21401E3D0F701EC5FFE4F11830083C95FDE4F588360
S21401E3E0C750D140C85FDE4F4883C850D140C75F91
S21401E3F0DE4F3883C950D14080E090E00FC0FC0169
S21401E4003396D701A80FB91F14962C9147E051E017
S21401E4104C0F5D1FE40FF51F208301968F3F91057A
S21401E42071F368F363E071E0CE01895F9E4F56DFBA
S21401E4300817190729F4F701818103C085E101C096
S21401E44085E1C75FDD4F0FB6F894DEBF0FBECDBFC7
S21401E450DF91CF911F910F91FF90EF900895109249
S21401E460C50083E38093C40088E18093C10086E001
S21401E4708093C20008959091C00095FFFCCF8093D1
S21401E480C60008958091C0008823E4F78091C600F5
S21401E49008958091C000807890E00895F894FFCFA9
S80401E0001A
