:020000021000EC
:10FC000065C000006BC0000069C0000067C0000054
:10FC100065C0000063C0000061C000005FC000005C
:10FC20005DC000005BC0000059C0000057C000006C
:10FC300055C0000053C0000051C000004FC000007C
:10FC40004DC000004BC0000049C0000047C000008C
:10FC500045C0000043C0000041C000003FC000009C
:10FC60003DC000003BC0000039C0000037C00000AC
:10FC700035C0000033C0000031C000002FC00000BC
:10FC80002DC000002BC0000029C0000027C00000CC
:10FC900025C0000023C0000021C000001FC00000DC
:10FCA0001DC000001BC0000019C0000017C00000EC
:10FCB00015C0000013C0000011C000000FC00000FC
:10FCC0000DC000000BC0000009C0000011241FBEC1
:10FCD000CFEFD1E2DEBFCDBF80D0D6C091CF23E041
:10FCE000FB0180935B0020935700E89507B600FC6A
:10FCF000FDCF81E180935700E89508958F929F9200
:10FD0000AF92BF92CF92DF92EF92FF924B015C01D4
:10FD1000DA0120E030E01AC0FD01E20FF31F40815C
:10FD2000818190E0982F8827842B75016401C20E91
:10FD3000D31EE11CF11C51E00C01F601E0925B00C6
:10FD400050935700E89511242E5F3F4F2F3F310508
:10FD500019F310F3FF90EF90DF90CF90BF90AF902A
:10FD60009F908F90089525E0FB0180935B00209386
:10FD70005700E89507B600FCFDCF81E1809357005E
:10FD8000E8950895CF92DF92EF92FF92CF93DF93A1
:10FD90006B017C01EA01F894A2DF07B600FCFDCFFD
:10FDA000AE01C701B601AADFC701B601DCDF789456
:10FDB000DF91CF91FF90EF90DF90CF90089520E0FA
:10FDC00030E006C0FC01E20FF31F20832F5F3F4F9E
:10FDD0002F3F3105B9F3B0F30895CF93DF93CDB73B
:10FDE000DEB7DA950FB6F894DEBF0FBECDBF8FEF4A
:10FDF00087B980E016C09FE098B92FEF39E698E107
:10FE0000215030409040E1F700C0000018B82FEFBB
:10FE100039E698E1215030409040E1F700C0000001
:10FE20008F5F833040F32FEF39E688E12150304077
:10FE30008040E1F700C00000CE010196C0DFF894D9
:10FE400040E050E0BA0183E0FA0160935B008093E8
:10FE50005700E89507B600FCFDCF81E1809357007D
:10FE6000E8957894AE014F5F5F4F60E070E0CB01A2
:10FE700089DF80E090E0D3950FB6F894DEBF0FBE27
:0CFE8000CDBFDF91CF910895F894FFCF23
:040000031000FC00ED
:00000001FF
